:100000000C94D2010C94FA010C94FA010C94FA01AC
:100010000C94FA010C94FA010C94FA010C94FA0174
:100020000C94FA010C94FA010C94FA010C94FA0164
:100030000C94FA010C94FA010C94FA010C94FA0154
:100040000C945D1A0C94FA010C942B1A0C94051A5A
:100050000C94FA010C94FA010C94FA010C94FA0134
:100060000C94A71A0C94FA0153616C766170616E5E
:1000700074616C6C617300526567726573617200C4
:10008000526567726573617200526567726573616C
:100090007200426C616E636F00416D6172696C6CDD
:1000A0006F004E6172616E6A610056696F6C6574B3
:1000B0006100566572646500417A756C00526F6A22
:1000C0006F00436F6C6F7200496E74656E73696484
:1000D000616400496E74657276616C6F0052656789
:1000E00072657361720041706167617200456E6391
:1000F000656E646572004D616E75616C004C616D7A
:1001000070617261203200526567726573617200BE
:10011000526567726573617200426C616E636F0055
:10012000416D6172696C6C6F004E6172616E6A61E3
:100130000056696F6C6574610056657264650041B4
:100140007A756C00526F6A6F00436F6C6F72004972
:100150006E74656E736964616400496E746572766D
:10016000616C6F0052656772657361720041706106
:1001700067617200456E63656E646572004D616E05
:1001800075616C004C616D706172612031004C755D
:100190007A005265677265736172005265677265B5
:1001A00073617200446573616374697661720048BB
:1001B000756D65646164203230250048756D656435
:1001C0006164203430250048756D656461642036B3
:1001D00030250048756D6564616420383025004D18
:1001E0006F646F7300496E74657276616C6F730033
:1001F0005265677265736172004170616761720078
:10020000456E63656E646572004D616E75616C006C
:10021000526965676F00496E666F726D6163696FE1
:100220006E001602100209020002F901F001E50158
:10023000DF01D301C701BB01AF01A4019B01920102
:100240008E0184017D0174016D0164015A014F0129
:10025000490144013F0139013101290120011901FE
:1002600010010701FD00F600ED00E600DD00D300FF
:10027000C800C200BD00B800B200AA00A2009900E8
:1002800092008900800077006800616C67756E20BD
:10029000626F746F6E2073616C6972004D6172746D
:1002A000686120497361692079204A75616E00692F
:1002B0006E74656C6967656E74652076312E3000EA
:1002C0004D616365746100250020204820616972DA
:1002D000652000204300202054656D702000206CB4
:1002E000780020204C757A200025002020482054DA
:1002F000696572726120005265676172206475726F
:10030000616E7465206E20736567005072656E645F
:100310006572206E20686F72617300496E74656E3D
:100320007369646164206E005072656E646572204A
:100330006E20686F72617300496E74656E736964D4
:100340006164206E0000000000240027002A0000E5
:100350000000080002010000030407000000000084
:1003600000000000000000250028002B0000000015
:1003700000230026002900040404040404040402E9
:100380000202020202030303030303010204081032
:1003900020408001020408102001020408102000FF
:1003A0003F1C432511241FBECFEFD8E0DEBFCDBFD9
:1003B00011E0A0E0B1E0ECEBF2E502C005900D9297
:1003C000A439B107D9F726E0A4E9B1E001C01D9234
:1003D000AD36B207E1F711E0C1EDD1E004C02197DD
:1003E000FE010E941F28C03DD107C9F70E94451E8B
:1003F0000C9451290C9400008091F5059091D6053C
:100400009F3F71F081FD0FC082608093F505E09100
:10041000C805F091C90509951092F40581E0089589
:100420008D7F8093F50580E008958091F50590918A
:10043000D6059F3F39F080FF08C084608093F505A2
:1004400081E008958E7F8093F50580E00895809186
:10045000F5059091D6059F3F19F08095817008951C
:100460008E7F8093F50580E00895CF92DF92EF9222
:10047000FF92CF93DF93B0913306A0E08111AB2FB1
:100480008091340690E0880F991FAC0143595C4F6E
:10049000C0903906D0903A06E0903B06F0903C06BA
:1004A00030E020E0FA01C591D491E881B90190E0F3
:1004B00080E0EB23EA130AC02F5F3F4F6C157D05E8
:1004C0008E059F0578F36FEF7FEFCB01DF91CF9122
:1004D000FF90EF90DF90CF900895CF92DF92EF9250
:1004E000FF92CF93809132068C3009F44FC038F4DC
:1004F0008B30F1F060E070E080EC9FE741C0855107
:100500008230C0F7C0912E066C2F70E0762F6627E0
:1005100066277F7780912F06682B90E080E00E940D
:100520006C262DEC3CEC4CEC5DE30E9423274AC08A
:1005300060912E0670E090E080E00E946C266B01D6
:100540007C01C0912F06C7FF0AC0AC019B0160E08F
:1005500070E080E89FEB0E9452256B017C01CF7018
:100560006C2F70E090E080E00E946E262DEC3CEC59
:100570004CEC5DE30E942327A70196010E945325BE
:10058000CF91FF90EF90DF90CF900895C0912E060D
:100590006C2F70E090E080E00E946C266B017C0183
:1005A00060912F066F7070E090E080E00E946E26F0
:1005B0002DEC3CEC4CEC5DE30E942327A701960157
:1005C0000E945325C7FFDCCF9058DACF80E4809398
:1005D0007C0080917A00806480937A0080917A0018
:1005E00086FDFCCF80917800909179000895089560
:1005F00081E008951092D5051092D4058091D6051A
:100600008F3F11F08093D8058FEF8093D60510921D
:10061000D7054FEF5FEFBA014093DB055093DC0540
:100620006093DD057093DE058093DF058093E00520
:100630008093E1058093E2058093E3058093E405D0
:100640008093E5058093E6050895089508958091C7
:10065000D6058F3F79F08091E905E091D405F091BE
:10066000D505811109948091E8058111FBCF809116
:10067000D705F8CF0895DC01ED91FC910190F08150
:10068000E02D0994AF92BF92CF92DF92EF92FF924A
:100690000F931F93CF93DF936C017B018B01040FAA
:1006A000151FEB015E01AE18BF08C017D10759F046
:1006B0006991D601ED91FC910190F081E02DC60188
:1006C0000995892B79F7C501DF91CF911F910F9182
:1006D000FF90EF90DF90CF90BF90AF900895FC0116
:1006E000538D448D252F30E0842F90E0821B930B97
:1006F000541710F0CF96089501970895FC01918D3D
:10070000828D981761F0A28DAE0FBF2FB11D5D963F
:100710008C91928D9F5F9F73928F90E008958FEFE1
:100720009FEF0895FC01918D828D981731F0828D95
:10073000E80FF11D858D90E008958FEF9FEF0895EC
:10074000FC01918D228D892F90E0805C9F4F821B50
:1007500091098F739927089585E792E00E94A0037D
:1007600021E0892B09F420E0822F089580E090E0B9
:10077000892B29F00E94AC0381110C94000008958C
:10078000FC01A48DA80FB92FB11DA35ABF4F2C9106
:10079000848D90E001968F739927848FA689B789FD
:1007A0002C93A089B1898C91837080648C93938DF4
:1007B000848D981306C00288F389E02D80818F7D97
:1007C00080830895EF92FF920F931F93CF93DF934F
:1007D000EC0181E0888F9B8D8C8D98131AC0E8897D
:1007E000F989808185FF15C09FB7F894EE89FF894C
:1007F0006083E889F98980818370806480839FBFEA
:1008000081E090E0DF91CF911F910F91FF90EF90E9
:100810000895F62E0B8D10E00F5F1F4F0F731127F9
:10082000E02E8C8D8E110CC00FB607FCFACFE88934
:10083000F989808185FFF5CFCE010E94C003F1CFF9
:10084000EB8DEC0FFD2FF11DE35AFF4FF0829FB7A8
:10085000F8940B8FEA89FB8980818062CFCFCF9398
:10086000DF93EC01888D8823B9F0AA89BB89E889D8
:10087000F9898C9185FD03C0808186FD0DC00FB67E
:1008800007FCF7CF8C9185FFF2CF808185FFEDCFFC
:10089000CE010E94C003E9CFDF91CF91089583304C
:1008A00081F028F4813099F08230A9F008958730E2
:1008B000A9F08830C9F08430B1F4809180008F7D38
:1008C00003C0809180008F7780938000089584B565
:1008D0008F7784BD089584B58F7DFBCF8091B00064
:1008E0008F778093B00008958091B0008F7DF9CF0D
:1008F000CF93DF93282F30E0F901E15BFC4F849127
:10090000F901E557FC4FD491F901E958FC4FC49126
:10091000CC23A1F081110E944F04EC2FF0E0EE0FE8
:10092000FF1FE359FC4FA591B491EC91ED2381E0B9
:1009300090E009F480E0DF91CF91089580E090E0AD
:10094000FACF1F93CF93DF93282F30E0F901E15BBB
:10095000FC4F8491F901E557FC4FD491F901E95816
:10096000FC4FC491CC23A9F0162F81110E944F0493
:10097000EC2FF0E0EE0FFF1FED59FC4FA591B49165
:100980008FB7F894EC91111108C0D095DE23DC9359
:100990008FBFDF91CF911F910895DE2BF8CFCF93BA
:1009A000DF9390E0FC01E557FC4F249189589C4F60
:1009B000FC0184918823C9F090E0880F991FFC0105
:1009C000EB5BFC4FA591B491FC01ED59FC4FC59137
:1009D000D49161110DC09FB7F8948C91209582231A
:1009E0008C938881282328839FBFDF91CF9108951E
:1009F000623051F49FB7F8943C91822F8095832305
:100A00008C93E8812E2BEFCF8FB7F894EC912E2B9F
:100A10002C938FBFEACF3FB7F8948091E201909179
:100A2000E301A091E401B091E50126B5A89B05C0C2
:100A30002F3F19F00196A11DB11D3FBFBA2FA92F5D
:100A4000982F8827BC01CD01620F711D811D911D5A
:100A500042E0660F771F881F991F4A95D1F70895C6
:100A60008F929F92AF92BF92CF92DF92EF92FF92BE
:100A70006B017C010E940B054B015C01C114D10488
:100A8000E104F104B9F00E940B05681979098A099B
:100A90009B09683E73408105910580F321E0C21AED
:100AA000D108E108F10888EE880E83E0981EA11CA9
:100AB000B11CE4CFFF90EF90DF90CF90BF90AF904C
:100AC0009F908F9008952FB7F8946091DE017091F8
:100AD000DF018091E0019091E1012FBF0895CF9255
:100AE000DF92EF92FF920F931F93CF93DF93CDB7D7
:100AF000DEB7C054D1400FB6F894DEBF0FBECDBFF5
:100B00000E94630500913506109136062091370644
:100B1000309138066B017C01C01AD10AE20AF30A4F
:100B200097018601003D17402105310590F4809121
:100B30003D06C05CDE4F0FB6F894DEBF0FBECDBFE2
:100B4000DF91CF911F910F91FF90EF90DF90CF90A9
:100B50000895609335067093360680933706909318
:100B600038061092300610922F0610922E06109220
:100B70002D0610922C0662E0809131060E94CF046F
:100B800061E070E080E090E00E94300561E08091DB
:100B900031060E94CF0460E0809131060E94A104DA
:100BA000809132068551823020F58BE291E10197E8
:100BB000F1F762E0809131060E94CF0480913E06F9
:100BC00090E08230910538F0880F991F880F991FA7
:100BD00005970197F1F7F89480E00E9435026F3F86
:100BE0007F4F8F4F9F4F61F410923D06789480E0C5
:100BF000A0CF64E170E080E090E00E943005D9CFA2
:100C000081E00E9435026F3F7F4F8F4F9F4F61F30E
:100C10008E010F5F1F4F6E012FEBC21A2EEFD20A0B
:100C2000780180E00E943502F7016083718382833E
:100C3000938381E00E943502F70164837583868384
:100C40009783F8E0EF0EF11CEC14FD0451F7789453
:100C500030E020E0F801C080D180E280F380448160
:100C6000558166817781FFEFCF16DF06EF06FF061D
:100C700031F04F3F8FEF58076807780719F410924B
:100C80003D06B5CFF90183E0F595E7958A95E1F743
:100C9000E45DF94F8081880FC416D506E606F70695
:100CA00010F180832F5F3F4F085F1F4F28323105BF
:100CB00089F64091300620912C0680912D06280F50
:100CC0003327331F80912E06280F311D80912F0668
:100CD000820F932F911D99274817190681F681E0FD
:100CE00080933D0626CF8160DCCFCF92DF92EF92DA
:100CF000FF920E946F05882349F0809132068B3065
:100D000028F08D3040F08551823030F160E070E0A5
:100D100080EC9FE71CC060912D0670E090E080E0C1
:100D20000E946E262DEC3CEC4CEC5DE30E942327E8
:100D30006B017C0160912C0670E090E080E00E94E5
:100D40006E269B01AC01C701B6010E945325FF909E
:100D5000EF90DF90CF90089560912C0670912D0652
:100D600076276727762790E080E00E946C262DEC9E
:100D70003CEC4CEC5DE30E942327E9CFFF920F93FC
:100D80001F93CF93DF93EC01FF24F394F60E2F8192
:100D90002F1581F108851985215041F16F3FE1F44C
:100DA00030E050E040E06FEF7FEF80E090E00E94A5
:100DB000D727B901F8014C815D81CF01801B910BD0
:100DC00084179507B0F44081469FC001479F900D5E
:100DD000112490833196EFCF8F2D90E0982F8827A4
:100DE0000197622F70E00E94A127E4CF70E060E0DD
:100DF000E1CFFF82DF91CF911F910F91FF90089576
:100E00008F929F92AF92BF92CF92DF92EF92FF921A
:100E10001F93CF93DF93FC01828193816817790739
:100E2000A8F54A01AA24BB24C82DC32ED42EE52E32
:100E3000FF241C2DD22F8781882361F0889E4001DA
:100E40001124C92D8C9D600111241D2D829FD0017C
:100E50001124DB2FA585E084F1849285A91322C09B
:100E6000CB01880F991F680F791F6E0D7F1DA2851A
:100E7000A60FB72FB11DCC93A385A60FB72FB11D19
:100E80001C938485680F711DFB01D083DF91CF9186
:100E90001F91FF90EF90DF90CF90BF90AF909F9009
:100EA0008F900895660F771F660F771F6E0D7F1D59
:100EB000252F332744275527882349F090E0829F28
:100EC0007001839FF00C929FF00C11242F2DA60F20
:100ED000B72FB11D2C93CBCFCF92DF92EF92FF9221
:100EE0000F931F93CF93DF93CDB7DEB729970FB63C
:100EF000F894DEBF0FBECDBF8C01DC0118968D913A
:100F00009C91892B09F462C00E940B05F801C684EC
:100F1000D784E088F1886C197D098E099F096233B6
:100F200071058105910580F3F894848195819A83F8
:100F300089830084F185E02D7F01BFEFEB1AFB0A66
:100F400080818987F80190810288F389E02DD8019A
:100F500054968C91992309F448C09081982B9887D6
:100F60009081809589238F838F818C8388E08B8308
:100F700058856F8149853B812C8189819A81D70170
:100F8000508347FD252F3A952083262F39F0441FA3
:100F900000C000006083000000C0F2CF38E04D9137
:100FA00060830000019761F7D8015396FC93EE939C
:100FB000529749873B832C839A83898378940E9434
:100FC0000B05F80166877787808B918B29960FB682
:100FD000F894DEBF0FBECDBFDF91CF911F910F916F
:100FE000FF90EF90DF90CF9008959081982B988795
:100FF0009081809589238F838F818E8388E08D8374
:1010000058856F8149853D812E8189819A81D701DB
:10101000508347FD252F00C000C0208300C000C0C2
:1010200000C000C000C060830000262F3A9541F048
:10103000441F000000C000C000C000C000C0E8CFD6
:1010400038E04D9100C0608300C0019709F7D801D6
:101050005396FC93EE93529749873D832E83ACCFF2
:10106000CF93DF93EC018E8187FD07C061E00E9482
:10107000CF0460E08E810E94A10481E08983DF912A
:10108000CF910895662339F0FC0184819581009702
:1010900011F06150F7CF0895FC0182819381009790
:1010A00011F00C94420890E080E008951F93CF93D4
:1010B000DF93182F9091F505C091D60594FF2AC0B3
:1010C000292F2F7E2093F505D091D805DF3F11F110
:1010D0008091EC058D17F0F08091F60586FD1AC021
:1010E000DC17C1F08F7780648093F605C093D80534
:1010F000CF3F09F445C08091E8058093E9059F76CC
:101100009093F505D093E7051092E8051092EB0552
:101110001092EA058091F50583FF25C0877F8093B3
:10112000F5052091DA052F3FF1F09091EC0592172B
:10113000D0F09091F60596FD16C0906C9093F60550
:101140002093E705C093D8058068CF3F79F190914F
:10115000E8059093E9058093F5051092E805109253
:10116000EB051092EA05CF3F39F01093000680910D
:10117000F50581608093F505DF91CF911F9108956A
:101180001092E90520682093F5058091D905809398
:10119000DA056091F1058091C2059091C3050E9426
:1011A0004C08FC0182858093D905ACCF1092E905EB
:1011B0008093F5058091D9058093DA056091F1055A
:1011C0008091C2059091C3050E944C08FC01828564
:1011D0008093D905C2CFCF93C091EF056C2F80913A
:1011E000C2059091C3050E944C08009731F0FC01A4
:1011F000248527FF04C0C093EF05CF910895CF5FEA
:1012000061E00E944208F1CFEF92FF920F931F938B
:10121000CF93DF93F82E882339F121E0821709F468
:10122000B0C08091F1059091ED05292F2150330B2D
:10123000A901282F30E0241B350B121613062CF0C1
:101240002091EE05222309F46EC0FF2009F4CAC0E4
:1012500031E0F31268C02091F0052417150609F05B
:1012600062C08F5F891BC8C0D091F10500E010E01B
:10127000C0E0DD2309F480C060E08091C205909158
:10128000C3050E944C08009709F472C0E090EF0576
:1012900000E010E0C0E0E1125DC0CC2309F46CC0B6
:1012A000D150D093F1050093EF05D0E08091F30584
:1012B00081FF2CC0DD2351F160E08091C205909147
:1012C000C3050E944C08009709F1FC01248527FF03
:1012D00002C0CF5F012F1F5F61E00E9442080097AC
:1012E000A1F7C150C093F1050093EF052091ED05E2
:1012F0008C2F90E0622F6150770B861B970B18168E
:101300001906E4F5C21BCF5FC093EE058091F4058A
:101310008D7F8093F4058091F70580628093F705B7
:10132000DD2309F47ECF8091F1059091EE05891BB4
:101330008093F0058091D6058F3F29F48091F705C1
:1013400080648093F705DF91CF911F910F91FF90FB
:10135000EF900895FC01248527FF02C0CF5F012F85
:101360001F5F61E00E944208009709F094CF9DCF73
:1013700000E010E0C0E099CFD1E098CF1092EE05E8
:10138000C5CFC091EF056C2F8091C2059091C30528
:101390000E944C08009721F161E00E9442080097EA
:1013A000F9F0CF5FFC01248527FFF6CF8091F1058E
:1013B0008F5F8093F105C093EF05D0E08091F30536
:1013C00081FF0AC0DD2341F01092EF051092F10574
:1013D0001092EE050E94EB088091F4058B7F99CF67
:1013E000D1E0ECCF8091F00581119DCF8091EE0589
:1013F000882309F498CF81508093EE0594CF809193
:10140000D6058F3F31F08091F60584608093F60514
:1014100008951092F405E091C205F091C30582850C
:101420008F3FD1F4F093C305E093C2051092F2050B
:101430001092F0051092EF051092F1051092EE0552
:101440000E94EB088AE00E9404098091F7058062FF
:101450008093F7050895FC0122852F3F19F38081C1
:1014600091810097C1F7F9CF8AE00E940409E2EC6C
:10147000F5E085A9806285AB0895CF9360E00E9476
:101480004C08C0E0009741F0FC01248527FDCF5FA8
:1014900061E00E944208F6CF8C2FCF910895809191
:1014A000C2059091C305009711F00C943D0A80E0AD
:1014B00008951F93CF93DF938091C2059091C30548
:1014C000FC011285208131812115310509F0C90106
:1014D0009093C3058093C2052091F205222319F051
:1014E00021502093F2051092EF051092F10560E073
:1014F0000E944C08009769F1D0E0C0E0FC0124850F
:1015000027FF21C0228512131DC0C093F105D0937F
:10151000EF052091ED058C2F90E0622F6150770B45
:10152000861B970B1816190654F4C21BCF5FC09385
:10153000EE058AE0DF91CF911F910C94040910927F
:10154000EE05F7CFCF5FDF5F61E00E9442080097B2
:10155000A9F6DF91CF911F910C94FF09FF920F9391
:101560001F93CF93DF930091C2051091C305F090B4
:10157000EF056F2DC8010E944C08EC0160E00E944D
:101580004C082C850097F1F420FF1CC08E819F81B0
:101590009093D5058093D4056F2DC8010E944C0807
:1015A000FC0182858093D6056F2DC8010E944C08EE
:1015B000FC0183858093D705DF91CF911F910F9117
:1015C000FF90089521FF07C0DF91CF911F910F91E8
:1015D000FF900C94340A892B79F3209769F3CE019C
:1015E0000E943D0A882341F3D093C305C093C205EE
:1015F0001092EE051092EF051092F1050E94EB0893
:101600008091F2058F5F8093F2051092F405DCCF94
:10161000CF93DF93EC01892B31F19091F60596FD84
:1016200022C04091D4055091D505C417D507D9F0F3
:101630009F7790649093F6058091D6058093D805A6
:101640009091F5058F3F91F08091E8058093E90531
:101650009F779093F5051092E7051092E805D093D7
:10166000EB05C093EA05DF91CF9108951092E9054B
:1016700090689093F5058091D9058093DA05609183
:10168000F1058091C2059091C3050E944C08FC01B0
:1016900082858093D905DFCFCF92DF92EF92FF92C0
:1016A0000F931F93CF93DF93E091C405F091C5058D
:1016B000309709F009958091F60586FDC2C080FD3E
:1016C00044C08091CA059091CB050097F1F120911B
:1016D000D6052F3F09F47FC02091D4053091D50560
:1016E0008217930791F1C0900906D0900A06E09006
:1016F0000B06F0900C060E94630500910506109100
:1017000006062091070630910806601B710B820BBC
:10171000930B6C157D058E059F05B8F00E9463053F
:10172000609305067093060680930706909308065B
:1017300080E00E9456080E944C0B1092F4058091A4
:10174000CA059091CB050E94080B2091F8053091B5
:10175000F9054091FA055091FB056091FC057091E7
:10176000FD058091FE059091FF05A0E00E941328E1
:1017700009F467C082ECE82E85E0F82ED0E0C0E0E6
:101780002091F8053091F9054091FA055091FB053B
:101790006091FC057091FD058091FE059091FF051B
:1017A0000C2F0E94F827217030E040E050E060E00C
:1017B00070E080E090E0A0E00E941328D1F1F701F2
:1017C000828593850097A9F12091D6052F3F51F589
:1017D0000E94080B2EC0C0900906D0900A06E09027
:1017E0000B06F0900C060E9463050091050610910F
:1017F00006062091070630910806601B710B820BCC
:10180000930B6C157D058E059F0508F49ECF0E94F5
:101810006305609305067093060680930706909310
:1018200008068BCF2091D4053091D50582179307F8
:1018300079F62196F2E0EF0EF11CC430D10509F0E3
:101840009FCFDF91CF911F910F91FF90EF90DF908D
:10185000CF900895DC011296ED91FC91139730978B
:1018600069F0248135812115310531F47583648354
:10187000FB01918380830895F901F3CF13967C9344
:101880006E931297F5CF08952091BA01260F332752
:10189000331F21323105ECF420914B02FC0190E022
:1018A00080E0243069F082E00895A091BA0121918E
:1018B000AC0146565E4FA40FB52FB11D2C93019677
:1018C000861798F38091BA01680F6093BA0180E09F
:1018D000089581E0089510924B0281E080934A02BE
:1018E0001092250261E082E10E94A10461E083E19F
:1018F0000E94A104E9EBF0E080818E7F80838081EB
:101900008D7F808388E48093B80085E48093BC0059
:101910000895109204021092030210925202109243
:1019200074020E946B0C85E293E090930202809314
:10193000010286E293E0909300028093FF010895F4
:10194000CF93DF9391E0909399018823B9F0C091F0
:10195000B800D091BA008091BC008A7B8093BC0013
:1019600060E082E10E94A10460E083E10E94A104A2
:101970000E946B0CD093BA00C093B800DF91CF9156
:1019800008958F929F92AF92BF92CF92DF92EF9283
:10199000FF920F931F93CF93DF93D0917402D132B4
:1019A00008F0D7C0182FC09173020E940B056B017D
:1019B0007C0180914B0281116BC082E080934B02CD
:1019C00010934A028FEF8093490210924802D093FD
:1019D0004702A3E5B2E0E7E2F2E080E0D81391C06D
:1019E0001092260280912602CC0FC82BC0932602AB
:1019F00080912502813009F088C0109225020E9452
:101A00000B056B017C01809126028093BB008091C5
:101A10004D0290914E02A0914F02B0915002892B3D
:101A20008A2B8B2BA1F00E940B0500914D02109187
:101A30004E0220914F02309150026C197D098E099F
:101A40009F09061717072807390708F442C0809135
:101A5000BC0083FDD8CF85EC8093BC000E940B05B1
:101A60006B017C0180914B02823009F450C080915F
:101A700049028F3F09F46FC080914902803209F416
:101A80006CC080914902803309F469C084E026C0AB
:101A900080914D0290914E02A0914F02B091500260
:101AA000892B8A2B8B2B09F484CF0E940B05809005
:101AB0004D0290904E02A0904F02B09050026C19CF
:101AC0007D098E099F0986169706A806B90608F0B3
:101AD00070CF80914C020E94A00C85E010925202BF
:101AE0001092740210925102DF91CF911F910F91C9
:101AF000FF90EF90DF90CF90BF90AF909F908F902E
:101B000008959D9191938F5F69CF85EEA5CF8091C8
:101B10004D0290914E02A0914F02B0915002892B3C
:101B20008A2B8B2B09F49ECF0E940B0500914D024E
:101B300010914E0220914F02309150026C197D0994
:101B40008E099F09061717072807390708F08ACF5B
:101B5000C0CF81E0C3CF80E0C1CF82E0BFCF83E0C0
:101B6000BDCF0895E091040280910302E81730F49C
:101B7000F0E0EB5FFD4F808190E008958FEF9FEFE5
:101B8000089590910402809103022FEF3FEF981780
:101B900048F4E92FF0E0EB5FFD4F208130E09F5FDC
:101BA00090930402C9010895809103029091040268
:101BB000891B990B0895CF92DF92EF92FF920F93BA
:101BC0001F93CF93DF937C01CB018A0120915102B7
:101BD000222389F0EB016B01C40ED51ECC15DD0567
:101BE00069F06991D701ED91FC910190F081E02DB0
:101BF000C7010995F3CF642F0E94440CC801DF91FF
:101C0000CF911F910F91FF90EF90DF90CF900895AB
:101C1000CF93DF931F92CDB7DEB769832091510236
:101C20002223F9F020917402203258F021E030E0B4
:101C3000FC013383228390E080E00F90DF91CF910D
:101C4000089580915202E82FF0E0ED5AFD4F9981FE
:101C500090838F5F809352028093740281E090E0C2
:101C6000ECCF61E0CE0101960E94440CF7CF909139
:101C7000270621E0209351029093730210925202A2
:101C800010927402682F82E193E00E94080E81E0B6
:101C90000C94C10CFC01248131E03093510220935B
:101CA000730210925202109274028385682B82E1B3
:101CB00093E00E94080E81E00C94C10C90E080E05B
:101CC0000895CF93DF930E94FC01882309F18FEFE1
:101CD00090E0909301018093000190930301809321
:101CE00002019093050180930401D0E0C0E02FEF42
:101CF0003FEF4FEF50E0BE018FE396E00E940007F8
:101D00002196C031D10599F78FE396E00E946C07C8
:101D100080E0DF91CF910C945608CF93DF930E941F
:101D2000FC01882329F18FEF90E0909301018093CB
:101D300000018BEE90E090930301809302018BE30E
:101D400090E09093050180930401D0E0C0E02BE384
:101D50003BEE4FEF50E0BE018FE396E00E9400079C
:101D60002196C031D10599F78FE396E00E946C0768
:101D700080E0DF91CF910C945608CF93DF930E94BF
:101D8000FC01882329F18FEF90E09093010180936B
:101D9000000187E590E0909303018093020182E2C5
:101DA00090E09093050180930401D0E0C0E022E22E
:101DB00037E54FEF50E0BE018FE396E00E94000749
:101DC0002196C031D10599F78FE396E00E946C0708
:101DD00080E0DF91CF910C945608CF93DF930E945F
:101DE000FC01882319F18FEF90E09093010180931B
:101DF00000012AE030E03093030120930201909328
:101E0000050180930401D0E0C0E02FEF3AE04FEFEE
:101E100050E0BE018FE396E00E9400072196C0319A
:101E2000D10599F78FE396E00E946C0780E0DF917F
:101E3000CF910C945608CF93DF930E94FC01882326
:101E400009F110920101109200018FEF90E0909340
:101E50000301809302011092050110920401D0E069
:101E6000C0E020E03FEF40E050E0BE018FE396E0AD
:101E70000E9400072196C031D10599F78FE396E0C3
:101E80000E946C0780E0DF91CF910C945608CF93AD
:101E9000DF930E94FC01882309F110920101109246
:101EA000000110920301109202018FEF90E09093D5
:101EB000050180930401D0E0C0E02FEF30E040E066
:101EC00050E0BE018FE396E00E9400072196C031EA
:101ED000D10599F78FE396E00E946C0780E0DF91CF
:101EE000CF910C945608CF93DF930E94FC01882376
:101EF00009F18FEF90E0909301018093000110921F
:101F00000301109202011092050110920401D0E029
:101F1000C0E020E030E04FEF50E0BE018FE396E0FC
:101F20000E9400072196C031D10599F78FE396E012
:101F30000E946C0780E0DF91CF910C945608CF93FC
:101F4000DF930E94FC01882349F1D0E0C0E080913A
:101F500006012091080130E050E040E0542F432F6B
:101F6000322F2227482B80910A01282BBE018FE3B4
:101F700096E00E9400078FE396E00E946C0764E6FB
:101F800070E080E090E00E9430052196C031D105DC
:101F9000F1F680E0DF91CF910C945608DF91CF915C
:101FA0000895CF93DF930E94FC01882309F18FEFFE
:101FB00090E090930701809306019093090180932C
:101FC000080190930B0180930A01D0E0C0E02FEF4D
:101FD0003FEF4FEF50E0BE0184E596E00E9400071E
:101FE0002196C031D10599F784E596E00E946C07EF
:101FF00080E0DF91CF910C945608CF93DF930E943D
:10200000FC01882329F18FEF90E0909307018093E2
:1020100006018BEE90E090930901809308018BE319
:1020200090E090930B0180930A01D0E0C0E02BE395
:102030003BEE4FEF50E0BE0184E596E00E940007C2
:102040002196C031D10599F784E596E00E946C078E
:1020500080E0DF91CF910C945608CF93DF930E94DC
:10206000FC01882329F18FEF90E090930701809382
:10207000060187E590E0909309018093080182E2D0
:1020800090E090930B0180930A01D0E0C0E022E23F
:1020900037E54FEF50E0BE0184E596E00E9400076F
:1020A0002196C031D10599F784E596E00E946C072E
:1020B00080E0DF91CF910C945608CF93DF930E947C
:1020C000FC01882319F18FEF90E090930701809332
:1020D00006012AE030E03093090120930801909333
:1020E0000B0180930A01D0E0C0E02FEF3AE04FEF00
:1020F00050E0BE0184E596E00E9400072196C031C1
:10210000D10599F784E596E00E946C0780E0DF91A5
:10211000CF910C945608CF93DF930E94FC01882343
:1021200009F110920701109206018FEF90E0909351
:1021300009018093080110920B0110920A01D0E06E
:10214000C0E020E03FEF40E050E0BE0184E596E0D3
:102150000E9400072196C031D10599F784E596E0E9
:102160000E946C0780E0DF91CF910C945608CF93CA
:10217000DF930E94FC01882309F11092070110925D
:10218000060110920901109208018FEF90E09093E0
:102190000B0180930A01D0E0C0E02FEF30E040E077
:1021A00050E0BE0184E596E00E9400072196C03110
:1021B000D10599F784E596E00E946C0780E0DF91F5
:1021C000CF910C945608CF93DF930E94FC01882393
:1021D00009F18FEF90E09093070180930601109230
:1021E00009011092080110920B0110920A01D0E02F
:1021F000C0E020E030E04FEF50E0BE0184E596E023
:102200000E9400072196C031D10599F784E596E038
:102210000E946C0780E0DF91CF910C945608CF9319
:10222000DF930E94FC01882349F1D0E0C0E0809157
:1022300006012091080130E050E040E0542F432F88
:10224000322F2227482B80910A01282BBE0184E5DA
:1022500096E00E94000784E596E00E946C0764E621
:1022600070E080E090E00E9430052196C031D105F9
:10227000F1F680E0DF91CF910C945608DF91CF9179
:1022800008950E94FC01882349F01092F3011092F6
:10229000F2011092F40180E00C94560808950E9417
:1022A000FC01882361F084E190E09093F301809336
:1022B000F20181E08093F40180E00C9456080895C7
:1022C0000E94FC01882361F088E290E09093F30182
:1022D0008093F20181E08093F40180E00C94560831
:1022E00008950E94FC01882361F08CE390E09093B4
:1022F000F3018093F20181E08093F40180E00C947B
:10230000560808950E94FC01882361F080E590E062
:102310009093F3018093F20181E08093F40180E0D7
:102320000C94560808950E94FC01882359F060E03F
:1023300083E00E94A1041092F3011092F20180E068
:102340000C94560808950E94FC01882339F061E03E
:1023500083E00E94A10480E00C94560808950E9436
:10236000FC01882319F081E00C9456080895CF925F
:10237000DF92EF92FF920F931F93CF93DF93C09161
:1023800027060E940B056B017C0180914B02811195
:1023900065C081E080934B0280934A029FEF909347
:1023A000490210924802809347028093260280914E
:1023B0002602CC0FC82BC0932602809125028130C3
:1023C00009F09AC0109225020E940B056B017C0156
:1023D000809126028093BB0080914D0290914E0225
:1023E000A0914F02B0915002892B8A2B8B2BA1F028
:1023F0000E940B0500914D0210914E0220914F0258
:10240000309150026C197D098E099F090617170734
:102410002807390708F443C08091BC0083FDD8CF5A
:1024200085EC8093BC000E940B056B017C018091C0
:102430004B02813009F462C080914802823008F07A
:102440007FC080914802A7E2B2E0E5E0F2E090E0D0
:10245000981751F12D9121939F5FFACF80914D02F2
:1024600090914E02A0914F02B0915002892B8A2B7D
:102470008B2B09F48ACF0E940B0500914D0210911D
:102480004E0220914F02309150026C197D098E0945
:102490009F09061717072807390708F076CF80919C
:1024A0004C020E94A00C80E0109204028093030270
:1024B00082E193E00E94C10DD82F80E0C82F82E115
:1024C00093E00E94C10D8C2B9D2BBC0190E080E01D
:1024D0000E946C262AE939E949E95FE30E94C42594
:1024E0000E943D26CB01DF91CF911F910F91FF906C
:1024F000EF90DF90CF90089585EE93CF80914D02BD
:1025000090914E02A0914F02B0915002892B8A2BDC
:102510008B2B09F48CCF0E940B0500914D0210917A
:102520004E0220914F02309150026C197D098E09A4
:102530009F09061717072807390708F078CFAFCF8C
:1025400082E081CF0F931F93CF938C01C62F0E94FF
:102550004A0E6C2F6460C8010E944A0E6C2F6B7F7C
:10256000C8010E944A0E83EC90E00197F1F7CF91E9
:102570001F910F9108950F931F93CF93DF938C01B9
:10258000D62FC42F607F642B0E94A21280E1D89FB7
:10259000B00111246C2BC801DF91CF911F910F91D5
:1025A0000C94A212CF93DF93CDB7DEB728970FB666
:1025B000F894DEBF0FBECDBF98E0E6E1F1E0DE01AA
:1025C000119601900D929A95E1F790912206961737
:1025D00010F46FEF690F262F30E0220F331F41E018
:1025E00050E04C0F5D1F240F351FF9016081680F0B
:1025F000606840E08AE196E028960FB6F894DEBF66
:102600000FBECDBFDF91CF910C94BB1241E00E9471
:10261000BB1281E090E008950F931F93CF93DF9357
:102620008C01D0E0C0E0F801EC0FFD1F649166233F
:1026300039F041E08AE196E00E94BB122196F3CF87
:10264000CE01DF91CF911F910F9108950F931F93AA
:10265000CF93DF938B0198E0899FB00111246064D0
:1026600040E08AE196E00E94BB12E801085F1F4F3C
:1026700069918AE196E00E940613C017D107C1F75D
:10268000DF91CF911F910F91089540E061E08AE1C1
:1026900096E00E94BB128BE39FE10197F1F760E0A7
:1026A00080E00C94D2120E94FC01882301F160E0CA
:1026B00080E00E94D21280EC92E00E940C1361E054
:1026C00080E00E94D2128FEA92E00E940C1362E036
:1026D00080E00E94D2128CE992E00E940C1363E029
:1026E00080E00E94D2128AE892E00E940C130E94BD
:1026F0002702882339F08091F405882319F080E0BF
:102700000E9456080C9415020F931F93CF9380914B
:10271000F30584FD0FC080618093F30562E08AE0D9
:102720000E94CF0462E08BE00E94CF0462E08CE064
:102730000E94CF048AE00E947804C1E0892B09F44A
:10274000C0E08BE00E947804892B09F0C2608CE025
:102750000E947804892BA1F1C4600E946305009156
:102760009401109195012091960130919701601B81
:10277000710B820B930B683C71058105910510F17B
:102780000E94630560939401709395018093960174
:1027900090939701C0FF05C08091F40581608093FC
:1027A000F405C1FF05C08091F40582608093F405B3
:1027B000C2FF08C08091F40584608093F40502C0D4
:1027C000C111CBCFCF911F910F910895FC0144818E
:1027D000558170E060E0808591850C944A290E94C3
:1027E000FC01882379F01092EB011092EA018FE34B
:1027F00096E00E94E6138FE396E00E946C0780E06B
:102800000C94560808950E94FC01882379F01092D8
:10281000F1011092F00184E596E00E94E61384E550
:1028200096E00E946C0780E00C9456080895FB0126
:1028300001900020E9F73197AF01461B570BDC01EF
:10284000ED91FC910280F381E02D09948F929F928B
:10285000AF92BF92EF92FF920F931F93CF93DF93AC
:10286000CDB7DEB7A1970FB6F894DEBF0FBECDBFD0
:102870007C01FA01CB0119A2223008F42AE08E0172
:102880000F5D1F4F822E912CB12CA12CBF01A501F1
:1028900094010E94B527F901CA016A300CF5605D08
:1028A000D8016E938D01232B242B252B79F790E0F3
:1028B00080E0109721F0BD01C7010E941714A19676
:1028C0000FB6F894DEBF0FBECDBFDF91CF911F9141
:1028D0000F91FF90EF90BF90AF909F908F900895D1
:1028E000695CDECFCF92DF92EF92FF92CF93DF93BE
:1028F0006C01990FEE08FF08F7FE23C06DE285E733
:1029000092E00E943B03EC0144275527BA014C1981
:102910005D096E097F092AE085E792E00E9426148E
:10292000C80FD91F66E771E085E792E00E9417148F
:102930008C0F9D1FDF91CF91FF90EF90DF90CF9094
:1029400008952AE0B701A60185E792E00E942614C7
:10295000EC01E8CFCF92DF92EF92FF920F931F939B
:10296000CF93DF936B01770FEE08FF08F7FE1BC0D4
:10297000EC016DE20E943B038C0144275527BA010C
:102980004C195D096E097F092AE0CE010E942614C8
:10299000800F911FDF91CF911F910F91FF90EF90CA
:1029A000DF90CF9008952AE0B701A601DF91CF9183
:1029B0001F910F91FF90EF90DF90CF900C94261411
:1029C000482F50E070E060E02AE08AE196E00C9445
:1029D0002614CF930E94FC01882379F060E080E008
:1029E0000E94D21287EF92E00E940C13109298017D
:1029F0008091F60581608093F6050E942702882366
:102A0000B9F18091F405882399F182FF0FC08B7F83
:102A10008093F405C0919801CF5FC093980160E066
:102A20008EE00E94D2128C2F0E94E0148091F40557
:102A300080FF1EC061E083E00E94CF0461E083E07C
:102A40000E94A1042091980188EE93E0289FB00194
:102A5000299F700D1124072E000C880B990B0E94E2
:102A6000300560E083E00E94A10480E00E945608E7
:102A7000CF910C941502CF93DF93BC0185E792E0D0
:102A80000E941714EC0166E771E085E792E00E946E
:102A900017148C0F9D1FDF91CF9108952F923F92B5
:102AA0004F925F926F927F928F929F92AF92BF925E
:102AB000CF92DF92EF92FF921F93CF93DF93EC01BF
:102AC0006A017B01722EAB019601CB01B6010E9417
:102AD000902769E771E0811126C046015701E8940B
:102AE000B7F82FEF3FEF4FE75FE7C501B4010E9452
:102AF000902781110CC02FEF3FEF4FE75FE7C50133
:102B0000B4010E94BF256DE771E0181664F02FEF45
:102B10003FEF4FE75FE4C701B6010E941E2718167A
:102B2000B4F461E871E0CE01DF91CF911F91FF9085
:102B3000EF90DF90CF90BF90AF909F908F907F905D
:102B40006F905F904F903F902F900C9417142FEF41
:102B50003FEF4FE75FECC701B6010E94BF2587FD3D
:102B6000E0CF20E030E0A901C701B6010E94BF25F7
:102B7000312C212C87FF09C06DE2CE010E943B035E
:102B80001C01F7FAF094F7F8F09410E060E070E0C0
:102B900080E09FE3711641F020E030E040E251E434
:102BA0000E94C4251F5FF6CFA70196010E945325FE
:102BB0002B013C010E943D264B015C012AE0BC0137
:102BC000A401CE010E9426147C01E20CF31C112307
:102BD000C1F1C501B4010E946C269B01AC01C30187
:102BE000B2010E9452254B015C016EE2CE010E94AF
:102BF0003B03E80EF91E115020F120E030E040E2E6
:102C000051E4C501B4010E9423272B013C010E941D
:102C10003D264B01B12CA12C2AE0B501A401CE0127
:102C20000E942614E80EF91EC501B4010E946C260C
:102C30009B01AC01C301B2010E9452254B015C0112
:102C4000DACFC701DF91CF911F91FF90EF90DF9016
:102C5000CF90BF90AF909F908F907F906F905F903C
:102C60004F903F902F900895CF92DF92EF92FF9276
:102C70000E94FC01882361F084E690E0A0E0B0E0CF
:102C80008093DB059093DC05A093DD05B093DE0512
:102C90000E942702882309F497C00E94E602BC0123
:102CA000990F880B990B0E946E262AE43CE042EAB9
:102CB0005EEB0E9423272FE832EC40EA53E40E94A7
:102CC00053250E9436266B017093FE016093FD012F
:102CD0000E946F05882309F481C00E946D026093F1
:102CE000F5017093F6018093F7019093F8010E942B
:102CF00075060E9436267093FA016093F9010E94CE
:102D0000B7119093FC018093FB0160E080E00E948A
:102D1000D2128BEE92E00E940C13B6018AE196E08B
:102D20000E94AA1489EE92E00E940C1361E080E0F8
:102D30000E94D21282EE92E00E940C136091FB017D
:102D40007091FC018AE196E00E94AA148EED92E057
:102D50000E940C1362E080E00E94D21286ED92E0A5
:102D60000E940C134091F5015091F6016091F7011A
:102D70007091F80122E08AE196E00E944E1583ED01
:102D800092E00E940C1363E080E00E94D21289EC72
:102D900092E00E940C136091F9017091FA018AE1AE
:102DA00096E00E94AA1487EC92E00E940C1360ED5A
:102DB00077E080E090E00E9430058091F405882360
:102DC00019F080E00E9456080E941502882359F0ED
:102DD000FF90EF90DF90CF900C94FF0960E070E0DF
:102DE00080EC9FE77CCFFF90EF90DF90CF9008952D
:102DF000CF93DF930E94FC01882379F060E080E0AC
:102E00000E94D21288E293E00E940C131092980163
:102E10008091F60581608093F6050E942702882341
:102E200009F46DC08091F405882309F468C082FF1D
:102E30001EC08B7F8093F405809198018F5F8093F3
:102E40009801893160F060E089E00E94D21265E863
:102E500071E08AE196E00E9417141092980160E0F8
:102E600088E00E94D212809198010E94E014809123
:102E7000F40580FF44C06091980170E090E080E02C
:102E80000E946E2620E03AEB4BE55AE40E9423278D
:102E90000E9436267093EB016093EA01D0E0C0E017
:102EA000809106012091080130E050E040E0542F6D
:102EB000432F322F2227482B80910A01282BBE0155
:102EC0008FE396E00E9400078FE396E00E946C0774
:102ED00064E670E080E090E00E9430050E946305A7
:102EE0006093E6017093E7018093E8019093E90114
:102EF0002196C031D105A1F680E00E945608DF91ED
:102F0000CF910C9415020E94FC01882379F060E0B7
:102F100080E00E94D21288E393E00E940C1310928A
:102F200098018091F60581608093F6050E94270242
:102F3000882351F18091F405882331F182FF12C07A
:102F40008B7F8093F405809198018F5F8B30F0F434
:102F50008093980160E08BE00E94D21280919801EA
:102F60000E94E0148091F40580FF0EC080919801CA
:102F700029E1829FC0011124059690930D01809351
:102F80000C0180E00E9456080C94150210929801E2
:102F900060E08CE00E94D21265E871E08AE196E080
:102FA0000E941714D7CF0E94FC01882379F060E0BB
:102FB00080E00E94D2128BE193E00E940C131092E9
:102FC00098018091F60581608093F6050E942702A2
:102FD000882351F18091F405882331F182FF12C0DA
:102FE0008B7F8093F405809198018F5F8B30F0F494
:102FF0008093980160E08BE00E94D212809198014A
:103000000E94E0148091F40580FF0EC08091980129
:1030100029E1829FC0011124059690930F018093AE
:103020000E0180E00E9456080C941502109298013F
:1030300060E08CE00E94D21265E871E08AE196E0DF
:103040000E941714D7CFCF93DF930E94FC018823EF
:1030500079F060E080E00E94D2128BE093E00E9461
:103060000C13109298018091F60581608093F6050B
:103070000E942702882309F46DC08091F4058823FB
:1030800009F468C082FF1EC08B7F8093F405809195
:1030900098018F5F80939801893160F060E089E04A
:1030A0000E94D21265E871E08AE196E00E9417144E
:1030B0001092980160E088E00E94D21280919801FD
:1030C0000E94E0148091F40580FF44C06091980153
:1030D00070E090E080E00E946E2620E03AEB4BE545
:1030E0005AE40E9423270E9436267093F1016093D0
:1030F000F001D0E0C0E0809106012091080130E0AD
:1031000050E040E0542F432F322F2227482B80914C
:103110000A01282BBE0184E596E00E94000784E5A1
:1031200096E00E946C0764E670E080E090E00E9408
:1031300030050E9463056093EC017093ED0180936C
:10314000EE019093EF012196C031D105A1F680E008
:103150000E945608DF91CF910C9415028F929F9296
:10316000AF92BF92CF92DF92EF92FF920F931F9395
:10317000CF93DF93CDB7DEB764970FB6F894DEBF79
:103180000FBECDBF8091F70585FF62C08F7D809314
:10319000F7058091F3058F778093F305E091C805DB
:1031A000F091C9050995F090EE05C090C205D09048
:1031B000C305FF2009F47AC060E0C6010E944C08F4
:1031C000009709F473C000E010E0DC011C962C911C
:1031D00027FF03C00F1539F00F5F1F5F61E00E94EA
:1031E0004208009791F7612FC6010E944C088C019C
:1031F000892B71F1E12C24E0D22EDF0CF8018485BB
:1032000087FF1DC080FF54C0E285EF3F59F0F0E01A
:10321000EE0FFF1FEE5DFD4F65917491CE0101969B
:103220000E944B256E2D81E00E94D212BE016F5F7D
:103230007F4F8AE196E00E941714F394E39461E0D3
:10324000C8010E9442088C01892B11F0FD14B0F2D4
:103250008091F70586FF49C08F7B8093F7050E9418
:103260004F0A082FF82E843010F084E0F82EC0901A
:10327000F10510E01F1561F1612F80E00E94D2126C
:103280008091F0056EE7181360E28AE196E00E94F3
:103290000613612F83E1F01698F40E94D21260E0C9
:1032A0008AE196E00E9406131F5FE4CF10E09BCFF7
:1032B00081FFC3CF0680F781E02D8E2D0995BDCF0C
:1032C0000E94D21260E28AE196E00E943B03ECCFBA
:1032D000101758F4C1101CC060E083E10E94D212A4
:1032E00061E08AE196E00E94061364960FB6F894B6
:1032F000DEBF0FBECDBFDF91CF911F910F91FF9029
:10330000EF90DF90CF90BF90AF909F908F900895F7
:10331000E02FE150FF0B7F01D12CEC15FD0539F4B6
:103320006FEF610F83E10E94D21264E0DACF612F68
:1033300070E090E080E00E946E2620E030E040E8FF
:1033400050E40E9423274B015C01B701FF0C880B5E
:10335000990B0E946E269B01AC01C501B4010E942D
:10336000C4254B015C01B601DD0C880B990B0E9452
:103370006E269B01AC01C501B4010E9423270E9467
:103380003D26862F612F0E949527192F682F83E1F4
:103390000E94D21261E0610FA4CF85ED8093BC0042
:1033A00080914D0290914E02A0914F02B091500237
:1033B0000796A11DB11D23E0B695A7959795879512
:1033C0002A95D1F72091BC0024FD03C010924B0236
:1033D000089540914D0250914E0260914F027091BC
:1033E0005002452B462B472B69F30097A105B105E9
:1033F00041F025E32A95F1F700000197A109B109F1
:10340000E1CF80914C020C94A00C1F920F920FB64A
:103410000F9211242F933F934F935F936F937F935A
:103420008F939F93AF93BF93EF93FF9385E792E0C2
:103430000E94C003FF91EF91BF91AF919F918F9137
:103440007F916F915F914F913F912F910F900FBEA0
:103450000F901F9018951F920F920FB60F92112484
:103460002F938F939F93EF93FF93E0918502F091B9
:1034700086028081E0918B02F0918C0282FD1BC05C
:10348000908180918E028F5F8F7320918F028217BF
:1034900041F0E0918E02F0E0EB58FD4F958F809364
:1034A0008E02FF91EF919F918F912F910F900FBE00
:1034B0000F901F9018958081F4CF1F920F920FB636
:1034C0000F9211242F933F938F939F93AF93BF93AA
:1034D0008091DE019091DF01A091E001B091E101C6
:1034E0003091DD0123E0230F2D3758F50196A11D02
:1034F000B11D2093DD018093DE019093DF01A09345
:10350000E001B093E1018091E2019091E301A0918B
:10351000E401B091E5010196A11DB11D8093E20186
:103520009093E301A093E401B093E501BF91AF91C3
:103530009F918F913F912F910F900FBE0F901F90F1
:10354000189526E8230F0296A11DB11DD2CF1F9218
:103550000F920FB60F9211242F933F934F935F93C7
:103560006F937F938F939F93AF93BF93EF93FF934B
:103570008091B900887F803609F44AC0F0F588321E
:1035800009F4A7C018F5803109F49BC0B8F488236A
:1035900009F4F9C0883009F494C0FF91EF91BF910C
:1035A000AF919F918F917F916F915F914F913F91DB
:1035B0002F910F900FBE0F901F901895883109F42E
:1035C00088C0803251F78093490214C0803409F4D6
:1035D0009DC040F48033B9F38833F9F680934902F3
:1035E00085ECB0C0803509F485C0883509F496C0F3
:1035F000883499F60E94CD19D0CF883909F48CC04F
:1036000038F5883729F050F4883611F0803729F6DC
:1036100083E080934B021092DC0157C0883809F494
:103620007BC0803919F0803809F0B7CF8091DC0178
:10363000803208F071C0E091DC0181E08E0F809350
:10364000DC018091BB00F0E0E454FE4F80833DC07C
:10365000803B39F0E0F4803A09F479C0883A09F007
:103660009CCF84E080934B021092BB011092BA0170
:10367000E0910102F091020209958091BA01811155
:103680000FC081E08093BA0110929A0109C0803C7A
:1036900009F4A6CF883C09F4A3CF883B09F07DCF7D
:1036A000E091BB0181E08E0F8093BB01F0E0E65614
:1036B000FE4F80818093BB009091BB018091BA0145
:1036C00029C0809126028093BB0085EC8093BC00CA
:1036D00064CF9091480280914702981758F5E09185
:1036E000480281E08E0F80934802F0E0E95DFD4FD3
:1036F0008081E9CFE091480281E08E0F80934802FB
:103700008091BB00F0E0E95DFD4F8083909148021D
:10371000809147029817C8F285E8D8CFE091480217
:1037200081E08E0F809348028091BB00F0E0E95D5C
:10373000FD4F808380914A0281115CCF81E08093AC
:10374000250284EA8093BC0010924B0226CF85ECC0
:103750008093BC0010924B028091DC01803230F4E7
:10376000E091DC01F0E0E454FE4F10826091DC0156
:1037700070E0E091FF01F09100028CEB91E009957F
:103780001092DC010ACF1092490234CF1F93CF93DD
:10379000DF93EC01198218821D821C821B821A821F
:1037A0006A871B861C85812F81608C874115510596
:1037B00091F487EF92E09F838E8388EF92E0998760
:1037C00088870E94F802882349F011681C87DF91DE
:1037D000CF911F9108955F834E83EFCF1F771160C4
:1037E000F5CF1F93CF93DF93EC01162F19821F8221
:1037F0001E861F86188A198A81E08D878A871B8614
:1038000092E09C87888380E390E09D838C830E9474
:10381000252899878887009769F120E3FC01119298
:103820002A95E9F780E190E09B838A831E83898152
:10383000882341F061E0812F0E94CF0460E0812F56
:103840000E94A104812F90E0FC01E958FC4FE49113
:10385000F0E0EE0FFF1FED59FC4F259134913B8BAB
:103860002A8BFC01E557FC4FE491EC8BDF91CF9163
:103870001F9108951D821C821B821A82D7CFCF937D
:10388000E5E7F2E01382128288EE93E0A0E0B0E078
:1038900084839583A683B7832AE431E03183208330
:1038A00025EC30E03587248724EC30E03787268705
:1038B00020EC30E0318B208B21EC30E0338B228BFD
:1038C00022EC30E0358B248B26EC30E0378B268BD6
:1038D000118E128E138E148EE2E1F3E013821282A7
:1038E00084839583A683B7838CE591E0918380835D
:1038F00064E084E596E00E94F11B65E08FE396E0CA
:103900000E94F11BACE2B6E089E015968C93159706
:103910008BE016968C931697E4E9F3E0E491179602
:10392000EC931797E0E8F3E0E4911896EC9318977E
:1039300040E85EE360E070E01D964D935D936D930B
:103940007C935097E6E2F6E080E190E094838383F5
:10395000158283E290E092838183EAE1F6E01382AC
:1039600012828EE691E09183808387E2848384E1F2
:103970008187C4E0C287138650E040E06FEF8DE09E
:1039800096E00E94C61BE2ECF5E08DE096E09183A4
:103990008083C3A78EEA98E19583848385E493E1CD
:1039A0009783868384E893E19383828311861086CC
:1039B00043E553E160E085EB95E00E94C61B50E0D3
:1039C00040E061E088EA95E00E94C61B50E040E0DC
:1039D00062E08BE995E00E94C61B43EA51E163E097
:1039E0008EE895E00E94C61B43E951E164E081E85E
:1039F00095E00E94C61B4FEA51E165E084E795E03F
:103A00000E94C61B49EE54E166E087E695E00E94FD
:103A1000C61B50E040E067E08AE595E00E94C61BC7
:103A200042E851E168E08DE495E00E94C61B41E761
:103A300051E169E080E495E00E94C61B40E651E157
:103A40006AE083E395E00E94C61B4FE451E16BE01E
:103A500086E295E00E94C61B41E451E16CE089E1F9
:103A600095E00E94C61B4FEA51E16DE08CE095E0C5
:103A70000E94C61B4FEA51E16EE08FEF94E00E9476
:103A8000C61B50E040E06FE082EF94E00E94C61B4E
:103A900050E040E060E185EE94E00E94C61B50E0FB
:103AA00040E061E188ED94E00E94C61B4FE051E1E7
:103AB00062E18BEC94E00E94C61B43E054E163E1B9
:103AC0008EEB94E00E94C61B4FEA51E164E181EB6A
:103AD00094E00E94C61B43E258E165E184EA94E069
:103AE0000E94C61B43ED57E166E187E994E00E941E
:103AF000C61B50E040E067E18AE894E00E94C61BE4
:103B000043EE50E168E18DE794E00E94C61B47EB6D
:103B100050E169E180E794E00E94C61B4BE850E168
:103B20006AE183E694E00E94C61B4DE550E16BE13B
:103B300086E594E00E94C61B4DE250E16CE189E409
:103B400094E00E94C61B4DEF5FE06DE18CE394E0D2
:103B50000E94C61B41ED5FE06EE18FE294E00E949F
:103B6000C61B4FEA51E16FE182E294E00E94C61B5E
:103B70004FEA51E160E285E194E00E94C61B50E00B
:103B800040E061E288E094E00E94C61B50E040E023
:103B900062E28BEF93E00E94C61B4FE95FE063E2B5
:103BA0008EEE93E00E94C61B4FEE53E164E281EE7D
:103BB00093E00E94C61B4FEA51E165E284ED93E079
:103BC0000E94C61B48EF56E166E287EC93E00E9434
:103BD000C61B43E857E167E28AEB93E00E94C61BED
:103BE00050E040E068E28DEA93E00E94C61B43E7A4
:103BF0005FE069E280EA93E00E94C61B47E45FE071
:103C00006AE283E993E00E94C61B4BE15FE06BE24E
:103C100086E893E00E94C61B4DEE5EE06CE289E709
:103C200093E00E94C61B4DEB5EE06DE28CE693E0F4
:103C30000E94C61B4DE85EE06EE28FE593E00E94B5
:103C4000C61B41E65EE06FE282E593E00E94C61B80
:103C50004FEA51E160E385E493E00E94C61B4FEA1E
:103C600051E161E388E393E00E94C61B4FEA51E112
:103C700062E38BE293E00E94C61B44E356E163E3F8
:103C80008EE193E0CF910C94C61B789484B582604A
:103C900084BD84B5816084BD85B5826085BD85B5F0
:103CA000816085BD80916E00816080936E0010926E
:103CB00081008091810082608093810080918100E9
:103CC000816080938100809180008160809380007A
:103CD0008091B10084608093B1008091B0008160D8
:103CE0008093B00080917A00846080937A00809104
:103CF0007A00826080937A0080917A00816080935C
:103D00007A0080917A00806880937A001092C100D6
:103D1000E0918502F091860282E08083E091810249
:103D2000F09182021082E0918302F09184028FEC84
:103D3000808310928D02E0918902F0918A0286E0E0
:103D40008083E0918702F091880280818061808386
:103D5000E0918702F0918802808188608083E09101
:103D60008702F0918802808180688083E0918702D9
:103D7000F091880280818F7D80830E94890C0E944F
:103D8000890C81E00E94370E80912B068823D9F0A0
:103D900061E0809126060E94CF0461E080912606B2
:103DA0000E94A104209127063091280680912B06BD
:103DB000882349F08091260660E02332310509F01E
:103DC00061E00E94A1046AE070E080E090E00E945F
:103DD0003005809129060E94370E62E080913106FD
:103DE0000E94CF040E946305605D774081099109BC
:103DF00060933506709336068093370690933806A5
:103E000087E380933E060E94890C10921F068091E2
:103E10002406823018F098E090931F0680932206C3
:103E200062E370E080E090E00E943005609125063A
:103E30008AE196E00E944A0E68EE73E080E090E02E
:103E40000E94300560E38AE196E00E94A212CBE472
:103E5000D6E4CE010197F1F760E38AE196E00E9493
:103E6000A2122197F1F760E38AE196E00E94A21284
:103E700083E592E00197F1F760E28AE196E00E9423
:103E8000A21260911F06606240E08AE196E00E9403
:103E9000BB1284E08093200640E06CE08AE196E06B
:103EA0000E94BB1240E061E08AE196E00E94BB12F2
:103EB000CBE3DFE1CE010197F1F782E080932106A9
:103EC00040E066E08AE196E00E94BB1240E062E0DA
:103ED0008AE196E00E94BB122197F1F788E0809377
:103EE000250660E08AE196E00E944A0E61E083E0E8
:103EF0000E94CF041092F3011092F2016EE171E082
:103F000080E00E94261366E271E081E00E942613A1
:103F10006EE271E082E00E94261366E371E083E0C6
:103F20000E9426136EE371E084E00E94261365EB85
:103F300075E08DE096E00E942A0C68EA75E08DE05D
:103F400096E00E942A0C6BE975E088EA95E00E94F1
:103F50002A0C6EE875E08BE995E00E942A0C61E876
:103F600075E08BE995E00E942A0C64E775E08BE927
:103F700095E00E942A0C67E675E088EA95E00E94C9
:103F80002A0C6AE575E088EA95E00E942A0C6DE447
:103F900075E08AE595E00E942A0C60E475E08AE508
:103FA00095E00E942A0C63E375E08AE595E00E94A3
:103FB0002A0C66E275E08AE595E00E942A0C69E128
:103FC00075E08AE595E00E942A0C6CE075E08AE5D0
:103FD00095E00E942A0C6FEF74E088EA95E00E9459
:103FE0002A0C62EF74E08DE096E00E942A0C65EEE8
:103FF00074E082EF94E00E942A0C68ED74E085EE94
:1040000094E00E942A0C6BEC74E088ED94E00E942E
:104010002A0C6EEB74E088ED94E00E942A0C61EBB0
:1040200074E088ED94E00E942A0C64EA74E085EE66
:1040300094E00E942A0C67E974E085EE94E00E9407
:104040002A0C6AE874E085EE94E00E942A0C6DE781
:1040500074E08AE894E00E942A0C60E774E08AE841
:1040600094E00E942A0C63E674E08AE894E00E94DF
:104070002A0C66E574E08AE894E00E942A0C69E460
:1040800074E08AE894E00E942A0C6CE374E08AE809
:1040900094E00E942A0C6FE274E08AE894E00E94A7
:1040A0002A0C62E274E08AE894E00E942A0C65E13E
:1040B00074E085EE94E00E942A0C68E074E082EFE0
:1040C00094E00E942A0C6BEF73E088E094E00E9479
:1040D0002A0C6EEE73E08BEF93E00E942A0C61EEE7
:1040E00073E08BEF93E00E942A0C64ED73E08BEF9A
:1040F00093E00E942A0C67EC73E088E094E00E9451
:104100002A0C6AEB73E088E094E00E942A0C6DEAC6
:1041100073E088E094E00E942A0C60EA73E08DEA84
:1041200093E00E942A0C63E973E08DEA93E00E9419
:104130002A0C66E873E08DEA93E00E942A0C69E796
:1041400073E08DEA93E00E942A0C6CE673E08DEA3E
:1041500093E00E942A0C6FE573E08DEA93E00E94E1
:104160002A0C62E573E08DEA93E00E942A0C65E474
:1041700073E08DEA93E00E942A0C68E373E088E024
:1041800094E00E942A0C6BE273E082EF94E00E94BC
:104190002A0C6EE173E08DE096E00E942A0C1092EA
:1041A000F3051092F5051092F4051092F80510929F
:1041B000F9051092FA051092FB051092FC05109279
:1041C000FD051092FE051092FF051092F605109263
:1041D000F7051092F0051092F2051092EF0510927B
:1041E000F105109201061092020610920306109239
:1041F000040683E38093EC050E94FA021092CD0539
:104200001092CC051092CF051092CE051092D105D8
:104210001092D0051092D3051092D2058091F50529
:1042200080688093F5050E94EB088AE00E940409EB
:104230008091F70580628093F7058091F305826095
:104240008093F30584E396E19093CB058093CA05B0
:1042500080E197E2A0E0B0E08093090690930A061F
:10426000A0930B06B0930C0684E596E00E943008FC
:104270008FE396E00E94300860910E0184E596E09D
:104280000E94BE0660910C018FE396E00E94BE067C
:10429000D0E0C0E0809106012091080130E050E0BC
:1042A00040E0542F432F322F2227482B80910A01C0
:1042B000282BBE0184E596E00E9400078091000152
:1042C0002091020130E050E040E0542F432F322F84
:1042D0002227482B80910401282BBE018FE396E012
:1042E0000E94000784E596E00E946C078FE396E049
:1042F0000E946C076CE271E080E090E00E94300563
:104300002196C031D10531F684E596E00E94E6138E
:104310008FE396E00E94E61384E596E00E946C0726
:104320008FE396E00E946C0780E0E82E80E0F82E94
:104330000E944C0B8091F405882309F443C00E942D
:1043400063056093050670930606809307069093B5
:1043500008069091D6058091F4059F3F09F0ABC205
:1043600080FF07C00E94AE0A8091F30588608093A9
:10437000F3058091F4059091F60591FD96C281FFB9
:1043800003C080E00E9404098091F40582FF03C00D
:1043900081E00E9404098091F405887111F00E9467
:1043A000340A8091F40585FF0DC08091F6058D7F5C
:1043B0008093F6058091F205882321F00E94590A26
:1043C0000E94340A2091F8053091F9054091FA05D0
:1043D0005091FB056091FC057091FD058091FE05F3
:1043E0009091FF05A0E00E94132851F00E94630500
:1043F000609305067093060680930706909308065F
:104400008091F60586FFB7C09091D6058D7B80938D
:10441000F6058091F3058F778093F3059F3FB9F000
:104420008091F505982F91609093F50582FF0E9489
:1044300027031092F4050E94FA028091F505887F07
:104440008093F5058091F6058E7F8093F605109296
:10445000E905E091C205F091C30582858F3F09F01F
:104460003BC2F093C305E093C2051092F20510928F
:10447000F0051092EF051092F1051092EE0560E044
:10448000CF010E944C089093C3058093C205892BED
:1044900009F478C2A090EA05B090EB050091E70519
:1044A0009090EC05C091C205D091C3051A85A11466
:1044B000B10409F41AC28E819F81A816B90609F0C9
:1044C00017C288819981009709F4CE019093C305A2
:1044D0008093C2051F3F09F455C260E00E944C085A
:1044E000EC0100E08A85181741F00F5F61E0CE0112
:1044F0000E944208EC01892BA9F70093F105009373
:10450000EF058091F60587FD2CC260E0CE010E9488
:104510004C08892B49F48C8580FF06C08091D60514
:104520008F3F11F40E94AE0A0E94340A60E080912D
:10453000C2059091C3050E944C08C0E0FC0124858F
:1045400027FF19C22285121315C2C093F1052091CD
:10455000ED058C2F90E0622F6150770B861B970B37
:10456000181619060CF003C2C21BCF5FC093EE05EC
:104570008AE00E9404098091D6058F3F09F445C066
:104580008091F50580FD15C29091F60592FD11C24E
:104590008090DB059090DC05A090DD05B090DE05F5
:1045A0000E94630500910106109102062091030606
:1045B00030910406601B710B820B930B6815790513
:1045C0008A059B0508F0E3C18091F50581FFE9C1EB
:1045D0008091F4058111E5C12091F8053091F9052C
:1045E0004091FA055091FB056091FC057091FD0525
:1045F0008091FE059091FF05A0E00E94132809F02C
:10460000D0C18091F70584FDCCC18091F705982F2A
:10461000907609F41CC286FF10C08091D905809362
:10462000DA056091F1058091C2059091C3050E9461
:104630004C08FC0182858093D9058091D6058F3F77
:1046400009F58091F60581FD05C08091F405897F0B
:104650008093F405E091C605F091C7050995109285
:10466000F4058091F70583FF0DC080668093F70500
:10467000E091C605F091C70509958091F705877F00
:104680008093F7058091F7058F798093F7050E9455
:10469000E602BC01990F880B990B0E946E262AE452
:1046A0003CE042EA5EEB0E9423272FE832EC40EA2E
:1046B00053E40E9453250E9436267093FE016093B6
:1046C000FD010E94B7119093FC018093FB010E94B1
:1046D00075060E9436267093FA016093F90187E807
:1046E00091E00E943B158091F9019091FA010E949E
:1046F00072140E946F05882309F4ACC10E946D02F8
:104700006093F5017093F6018093F7019093F8019F
:104710008AE891E00E943B154091F5015091F60125
:104720006091F7017091F80122E085E792E00E9424
:104730004E1566E771E085E792E00E9417140E942B
:10474000B7119093FC018093FB018DE891E00E94EA
:104750003B158091FB019091FC010E9472140E9414
:10476000E602BC01990F880B990B0E946E262AE481
:104770003CE042EA5EEB0E9423272FE832EC40EA5D
:1047800053E40E9453250E9436267093FE016093E5
:10479000FD0180E991E00E943B158091FD0190911F
:1047A000FE010E9472148091F401882381F020910F
:1047B000FD013091FE018091F2019091F30161E0E1
:1047C000281739070CF060E083E00E94A1040E94E2
:1047D0006305E091F001F091F1013097F9F000915B
:1047E000EC011091ED012091EE013091EF01AB0150
:1047F000BC01401B510B620B730BCF01FF0FAA0BC7
:10480000BB0B84179507A607B70740F484E596E02D
:104810000E94E61384E596E00E946C070E946305FF
:10482000E091EA01F091EB013097F9F00091E60197
:104830001091E7012091E8013091E901AB01BC0141
:10484000401B510B620B730BCF01FF0FAA0BBB0B6D
:1048500084179507A607B70740F48FE396E00E94F8
:10486000E6138FE396E00E946C0760910E0184E5E9
:1048700096E00E94BE0660910C018FE396E00E94D4
:10488000BE0684E596E00E946C078FE396E00E94E6
:104890006C07E114F10409F44BCD0E94AC038823AA
:1048A00009F446CD0E94000043CD867009F473CD13
:1048B0000E94340A70CD85FF85CD8091F6058D7FED
:1048C0008093F60580E00E9456088091F4058F7D64
:1048D0008093F40577CDFC0122852F3F09F4C1CDEB
:1048E000808191810097B9F7F8CF011709F4E9CDDC
:1048F0009116A9F160E0CE010E944C08892B01F1CC
:104900008091F2058F5F8093F20560E0CE010E94F6
:104910004C089093C3058093C205C4CDE091C205B5
:10492000F091C305C081D181209709F4EF01D093A4
:10493000C305C093C2058091F20581508093F205B2
:1049400061E0CE010E944208009719F7E881F981E1
:10495000309709F4FE0182858F3F01F7A3CD1FEF49
:10496000B0CD8C8587FDE0CD0E94FF09DDCD109292
:10497000EE05FECDCF5F61E00E944208009709F08E
:10498000DDCDF9CD0E94FF090E94340AF4CD0E94CA
:10499000630560930106709302068093030690936B
:1049A00004068091F7058F7E8093F7050E94270308
:1049B0002CCE982F91609093F50582FF0E942703DB
:1049C0000E94FA021092E8059091F5058091F60593
:1049D000282F2E7F2093F605987F9093F50582FF70
:1049E00006C08A7F8093F6050E94FF091CC0809153
:1049F0000006882341F00E94590A809100068150E8
:104A000080930006F4CF8091F20581110FC0609170
:104A1000EF058091C2059091C3050E944C08FC01EE
:104A2000848587FFE1CF0E94340AEFCD8091F205A3
:104A30008823C9F38091C2059091C305009721F0A6
:104A40000E943D0A8111EFCF0E94590AEFCF1092C8
:104A5000F4051DCE60E070E080EC9FE751CECF936F
:104A6000DF93EC0188859985009711F00E94C12899
:104A70008E8187FD05C060E0DF91CF910C94CF045B
:104A8000DF91CF9108958FE396E00E942F2584E572
:104A900096E00C942F25FB01DC0105900D9200207F
:104AA000E1F708955058BB27AA270E946A250C9465
:104AB000E4260E94D62638F00E94DD2620F039F444
:104AC0009F3F19F426F40C94D3260EF4E095E7FBEF
:104AD0000C94CD26E92F0E94F52658F3BA176207E9
:104AE00073078407950720F079F4A6F50C9417272F
:104AF0000EF4E0950B2EBA2FA02D0B01B9019001F9
:104B00000C01CA01A0011124FF27591B99F0593F3C
:104B100050F4503E68F11A16F040A22F232F342F84
:104B20004427585FF3CF469537952795A795F040D2
:104B30005395C9F77EF41F16BA0B620B730B840BE7
:104B4000BAF09150A1F0FF0FBB1F661F771F881F9F
:104B5000C2F70EC0BA0F621F731F841F48F48795F7
:104B600077956795B795F7959E3F08F0B0CF9395E9
:104B7000880F08F09927EE0F9795879508950E9462
:104B8000A92608F481E008950E94D8250C94E42613
:104B90000E94DD2658F00E94D62640F029F45F3F9F
:104BA00029F00C94CD2651110C9418270C94D3267F
:104BB0000E94F52668F39923B1F3552391F3951BD1
:104BC000550BBB27AA2762177307840738F09F5F2E
:104BD0005F4F220F331F441FAA1FA9F335D00E2E9B
:104BE0003AF0E0E832D091505040E695001CCAF708
:104BF0002BD0FE2F29D0660F771F881FBB1F2617CB
:104C000037074807AB07B0E809F0BB0B802DBF01A1
:104C1000FF2793585F4F3AF09E3F510578F00C9470
:104C2000CD260C9418275F3FE4F3983ED4F3869585
:104C300077956795B795F7959F5FC9F7880F911D91
:104C40009695879597F90895E1E0660F771F881F7D
:104C5000BB1F621773078407BA0720F0621B730B30
:104C6000840BBA0BEE1F88F7E09508950E943D264D
:104C70006894B1110C94182708950E94FD2688F0BD
:104C80009F5798F0B92F9927B751B0F0E1F0660F10
:104C9000771F881F991F1AF0BA95C9F714C0B13051
:104CA00091F00E941727B1E008950C941727672F01
:104CB000782F8827B85F39F0B93FCCF38695779580
:104CC0006795B395D9F73EF4909580957095619569
:104CD0007F4F8F4F9F4F0895E89409C097FB3EF494
:104CE00090958095709561957F4F8F4F9F4F992339
:104CF000A9F0F92F96E9BB279395F69587957795B7
:104D00006795B795F111F8CFFAF4BB0F11F460FF76
:104D10001BC06F5F7F4F8F4F9F4F16C0882311F0CE
:104D200096E911C0772321F09EE8872F762F05C0E2
:104D3000662371F096E8862F70E060E02AF09A957D
:104D4000660F771F881FDAF7880F9695879597F972
:104D50000895990F0008550FAA0BE0E8FEEF16160C
:104D60001706E807F907C0F012161306E407F5075F
:104D700098F0621B730B840B950B39F40A2661F0D3
:104D8000232B242B252B21F408950A2609F4A14076
:104D9000A6958FEF811D811D089597F99F6780E883
:104DA00070E060E008959FEF80EC089500240A947D
:104DB0001616170618060906089500240A941216F6
:104DC0001306140605060895092E0394000C11F429
:104DD000882352F0BB0F40F4BF2B11F460FF04C0D6
:104DE0006F5F7F4F8F4F9F4F089557FD9058440F2F
:104DF000551F59F05F3F71F04795880F97FB991F3A
:104E000061F09F3F79F087950895121613061406F6
:104E1000551FF2CF4695F1DF08C016161706180683
:104E2000991FF1CF86957105610508940895E8945E
:104E3000BB2766277727CB0197F908950E94A926FB
:104E400008F48FEF08950E9436270C94E4260E9400
:104E5000D62638F00E94DD2620F0952311F00C9420
:104E6000CD260C94D32611240C9418270E94F526E5
:104E700070F3959FC1F3950F50E0551F629FF001AD
:104E8000729FBB27F00DB11D639FAA27F00DB11DC6
:104E9000AA1F649F6627B00DA11D661F829F22274F
:104EA000B00DA11D621F739FB00DA11D621F839FD6
:104EB000A00D611D221F749F3327A00D611D231FAC
:104EC000849F600D211D822F762F6A2F11249F57FA
:104ED00050409AF0F1F088234AF0EE0FFF1FBB1FFD
:104EE000661F771F881F91505040A9F79E3F5105BC
:104EF00080F00C94CD260C9418275F3FE4F3983E85
:104F0000D4F3869577956795B795F795E7959F5F65
:104F1000C1F7FE2B880F911D9695879597F90895F7
:104F20000E94A926880B990B0895991B79E004C06B
:104F3000991F961708F0961B881F7A95C9F78095D8
:104F40000895AA1BBB1B51E107C0AA1FBB1FA617D0
:104F5000B70710F0A61BB70B881F991F5A95A9F722
:104F600080959095BC01CD010895A1E21A2EAA1B4F
:104F7000BB1BFD010DC0AA1FBB1FEE1FFF1FA21709
:104F8000B307E407F50720F0A21BB30BE40BF50B06
:104F9000661F771F881F991F1A9469F7609570958F
:104FA000809590959B01AC01BD01CF010895052E20
:104FB00097FB1EF400940E94EE2757FD07D00E9435
:104FC000B52707FC03D04EF40C94EE27509540957E
:104FD000309521953F4F4F4F5F4F089590958095A5
:104FE000709561957F4F8F4F9F4F089597FD109457
:104FF000002E083098F00850232F342F452F562FBD
:10500000672F782F892F912DF4CF15949795879539
:105010007795679557954795379527950A95AAF7F8
:105020001124002D08950024A7FD00942A173005AF
:105030004005500560057005800590050895EE0F48
:10504000FF1F0590F491E02D09940F931F93CF93C8
:10505000DF938230910510F482E090E0E0916B06DE
:10506000F0916C0630E020E0B0E0A0E0309799F4D9
:105070002115310509F44AC0281B390B24303105AC
:10508000D8F58A819B816115710589F1FB019383B4
:105090008283FE0111C04081518102811381481732
:1050A0005907E0F04817590799F4109761F01296E4
:1050B0000C93129713961C933296CF01DF91CF91E8
:1050C0001F910F91089500936B0610936C06F4CF17
:1050D0002115310551F04217530738F0A901DB01C2
:1050E0009A01BD01DF01F801C1CFEF01F9CF909323
:1050F0006C0680936B06CDCFFE01E20FF31F819308
:1051000091932250310939832883D7CF20916906A2
:1051100030916A06232B41F4209112013091130142
:1051200030936A0620936906209110013091110195
:105130002115310541F42DB73EB74091140150912E
:105140001501241B350BE0916906F0916A06E21700
:10515000F307A0F42E1B3F0B2817390778F0AC019A
:105160004E5F5F4F2417350748F04E0F5F1F509377
:105170006A0640936906819391939FCFF0E0E0E047
:105180009CCFCF93DF930097E9F0FC013297138215
:105190001282A0916B06B0916C06ED0130E020E028
:1051A0001097A1F420813181820F931F209169060D
:1051B00030916A062817390709F061C0F0936A0632
:1051C000E0936906DF91CF910895EA01CE17DF07DA
:1051D000E8F54A815B819E0141155105B1F7E9016E
:1051E000FB83EA8349915991C40FD51FEC17FD0742
:1051F00061F4808191810296840F951FE901998362
:105200008883828193819B838A83F0E0E0E0129619
:105210008D919C9113970097B9F52D913C91119721
:10522000CD010296820F931F2091690630916A0684
:105230002817390739F6309751F510926C061092FD
:105240006B06B0936A06A0936906BCCFD383C28372
:1052500040815181840F951FC817D90761F44E5FB3
:105260005F4F88819981480F591F518340838A81FC
:105270009B81938382832115310509F0B0CFF09390
:105280006C06E0936B069ECFFD01DC01C0CF13825C
:105290001282D7CFDC0101C06D9341505040E0F73E
:1052A000089511E0C1EDD1E004C0FE010E941F2865
:0C52B0002196C23DD107C9F7F894FFCF4A
:1052BC00FF000A00FF00FF000A00FF00FF00FF00D4
:1052CC0000006D0680000000400014005400111115
:1052DC001111111111111F1F111111111111111196
:1052EC001F1F11111111111111111F1F111111116A
:1052FC00111111111F1F00000000E20342036F0384
:10530C002F04A0037E03920300000000080EDB0DA7
:10531C005E0EB10DD40DC10DB20D000000000613D0
:10532C0042035E0E430C0D0A006E616E00696E66E0
:10533C00006F76660020002D35002D34002D3300D3
:04534C002D320000FE
:00000001FF
